:020000040800F2
:10000000B0120020690200087102000873020008A3
:10001000750200087702000879020008000000005D
:100020000000000000000000000000007B0200084B
:100030007D020008000000007F0200088102000825
:10004000830200088302000883020008830200087C
:10005000830200088302000883020008830200086C
:10006000830200088302000883020008830200085C
:10007000830200088302000883020008830200084C
:10008000830200088302000883020008830200083C
:10009000210600088302000883020008830200088A
:1000A000830200088302000883020008830200081C
:1000B000830200088302000883020008830200080C
:1000C00083020008830200088302000883020008FC
:1000D00083020008A526000885280008712A000868
:1000E00083020008830200088302000883020008DC
:1000F00083020008830200088302000883020008CC
:1001000083020008830200088302000883020008BB
:100110009124000869260008830200088302000871
:10012000830200088302000883020008830200089B
:10013000830200088302000883020008830200088B
:10014000CD0700088302000883020008830200082C
:10015000830200088302000883020008830200086B
:10016000830200088302000883020008830200085B
:10017000830200088302000883020008830200084B
:10018000830200088302000800F002F800F05CF827
:100190000AA090E8000C82448344AAF10107DA45E2
:1001A00001D100F051F8AFF2090EBAE80F0013F0D8
:1001B000010F18BFFB1A43F0010318473430000049
:1001C000543000000A444FF0000C10F8013B13F0CB
:1001D000070408BF10F8014B1D1108BF10F8015BA0
:1001E000641E05D010F8016B641E01F8016BF9D193
:1001F00013F0080F1EBF10F8014BAD1C0C1B09D1EA
:100200006D1E58BF01F801CBFAD505E014F8016B5B
:1002100001F8016B6D1EF9D59142D6D370470000ED
:100220000023002400250026103A28BF78C1FBD8FF
:10023000520728BF30C148BF0B6070471FB502F09E
:1002400033FE1FBD10B510BD00F0F6F81146FFF7E4
:10025000F5FF02F022FE00F014F903B4FFF7F2FFFD
:1002600003BC00F017F9000009488047094800471F
:10027000FEE7FEE7FEE7FEE7FEE7FEE7FEE7FEE756
:10028000FEE7FEE704480549054A064B70470000B3
:10029000151E000889010008B00C0020B0120020D3
:1002A000B00E0020B00E0020032A40F2308010F083
:1002B000030C00F0158011F8013BBCF1020F624401
:1002C00098BF11F801CB00F8013B38BF11F8013B92
:1002D000A2F1040298BF00F801CB38BF00F8013B3F
:1002E00011F0030300F07180083AC0F0088051F863
:1002F000043B083A51F804CBA0E80810F5E7121DBA
:100300005CBF51F8043B40F8043BAFF30080D207D8
:1003100024BF11F8013B11F801CB48BF11F8012BA4
:1003200024BF00F8013B00F801CB48BF00F8012BC7
:1003300070474FF000020429C0F0128010F0030C47
:1003400000F01B80CCF1040CBCF1020F18BF00F8C8
:10035000012BA8BF20F8022BA1EB0C0100F00DB877
:100360005FEAC17C24BF00F8012B00F8012B48BFD5
:1003700000F8012B70474FF0000200B51346944679
:100380009646203922BFA0E80C50A0E80C50B1F1ED
:100390002001BFF4F7AF090728BFA0E80C5048BF01
:1003A0000CC05DF804EB890028BF40F8042B08BF9F
:1003B000704748BF20F8022B11F0804F18BF00F89B
:1003C000012B704770477047704710B5203AC0F056
:1003D0000B80B1E81850203AA0E81850B1E8185046
:1003E000A0E81850BFF4F5AF5FEA027C24BFB1E883
:1003F0001850A0E8185044BF18C918C0BDE81040F4
:100400005FEA827C24BF51F8043B40F8043B08BFFC
:100410007047D20728BF31F8023B48BF11F8012BC3
:1004200028BF20F8023B48BF00F8012B70470000AE
:10043000004870474C0C00207546FFF7F9FFAE46A8
:1004400005006946534620F00700854618B020B5E0
:10045000FFF718FFBDE820404FF000064FF00007FF
:100460004FF000084FF0000B21F00701AC46ACE85C
:10047000C009ACE8C009ACE8C009ACE8C0098D46C9
:10048000704710B50446AFF300802046BDE8104029
:10049000FFF7E3BE01491820ABBEFEE726000200CD
:1004A000704710B5026842600160D0E90023D21A9B
:1004B0008260C3685A4202EBD2748368B3EB640F64
:1004C00004DAD0E902231A4482600AE0D0E9023259
:1004D00002EBD274B3EB640F03DDD0E90223D21A2E
:1004E0008260836802691A44026110BD002070476F
:1004F00010B501F0D1FC00F083FD00F017F800F01A
:10050000EFF840F28F6140F2CF7001F043FD40F20E
:100510008F6140F2CF7001F0DBFC02F0D9F902F0FC
:10052000E9F801F0F5FE01F0C3FF10BD00B58BB096
:100530000121022001F0FCF80121480601F008F930
:100540004FF44070029002208DF80C008DF80D00E1
:1005500000208DF80E0001208DF80F0002A92E4812
:1005600000F068FD092208212B4800F0ABFD0922AC
:100570001146294800F0A6FD00208DF82600012034
:100580008DF827008DF8280000208DF829008DF8BF
:100590002A0001208DF82B0000208DF822008DF814
:1005A000230008208DF8240003208DF82500ADF8E5
:1005B000200008A9194800F0F2FA00208DF81A006E
:1005C0008DF81B0001208DF81C000020ADF81000F4
:1005D000ADF81200ADF81400ADF81600ADF8180033
:1005E00001208DF81D0004A800F0BCF901220221B1
:1005F0000A4800F0CBFA14208DF8040001208DF891
:1006000007008DF8050002208DF8060001A800F013
:100610007BFF0BB000BD00000004024000640040FE
:1006200000B585B002212A4800F020FA00284DD0FC
:100630000221274800F042F96A460021244800F0D0
:1006400038FB0098A0F2012020B1012815D0022823
:1006500039D125E0684600F058FD1E49086068461B
:1006600000F059FD00EE100AB8EEC00A194880EDFE
:10067000070A0168FFF715FF26E0684600F045FD10
:1006800015490860684600F046FD00EE100AB8EE15
:10069000C00A114880ED070A0168FFF702FF00BF9A
:1006A000684600F032FD0D490860684600F033FDF1
:1006B00000EE100AB8EEC00A084880ED070A01688B
:1006C000FFF7EFFE00BF00BF00BF00BF05B000BDD9
:1006D00000640040D0050020F00500201006002036
:1006E00000B58BB00121880601F032F8602002903D
:1006F00002208DF80C008DF80D0000208DF80E0002
:1007000001208DF80F0002A92E4800F093FC092269
:1007100005212C4800F0D6FC09220621294800F0CA
:10072000D1FC00208DF8260001208DF827008DF8DF
:10073000280000208DF829008DF82A0001208DF86E
:100740002B0000208DF8230008208DF824000320C2
:100750008DF82500ADF8200008A91B4800F01FFA0D
:100760000E208DF81A0000208DF81B0001208DF856
:100770001C000020ADF81000ADF81200ADF8140018
:10078000ADF81600ADF8180001208DF81D0004A882
:1007900000F0E8F80E208DF81A00012202210A4824
:1007A00000F0F4F940208DF8040001208DF80700D6
:1007B0008DF8050003208DF8060001A800F0A4FEC6
:1007C0000BB000BD000402400068004000B585B0D9
:1007D0000221354800F04AF9002862D0022132484F
:1007E00000F06CF86A4600212F4800F062FA009889
:1007F000A0F2012030B1012817D0022828D0042807
:100800004CD138E0684600F080FC28490860684612
:1008100000F081FC00EE100AB8EEC00A234880ED1B
:10082000070A0168FFF73DFE39E0684600F06DFCFD
:100830001F490860684600F06EFC00EE100AB8EE32
:10084000C00A1B4880ED070A0168FFF72AFE00BFB7
:10085000684600F05AFC17490860684600F05BFCE7
:1008600000EE100AB8EEC00A124880ED070A0168CF
:10087000FFF717FE00BF684600F047FC0E4908600E
:10088000684600F048FC00EE100AB8EEC00A0A48BC
:1008900080ED070A0168FFF704FE00BF00BF00BF3C
:1008A00000BF05B000BD0000006800403006002019
:1008B000500600207006002090060020B1F5007F51
:1008C0003AD00FDC202928D006DC01291CD00429CD
:1008D0001DD0082940D11DE0402921D0B1F5807FED
:1008E0003AD126E0B1F5004F31D006DCB1F5806F8A
:1008F00025D0B1F5006F2FD124E0B1F5803F12D0A3
:10090000B1F5003F28D111E0154A826025E00822A8
:10091000C26022E01022C2601FE0082202611CE0D7
:100920001022026119E00822426016E010224260A3
:1009300013E00422426010E0042242600DE0042231
:1009400042600AE0002282610422426005E0002247
:1009500082610422426000E000BF00BF70470000D7
:100960000101010010B50021837A012202FA03F18E
:100970003D4A126842F001023B4B1A603A4A1C326F
:1009800012688A43384B1C331A60027BCAB9364A54
:100990000C3212688A43344B0C331A604288C38885
:1009A00042EA0343304A4032847A42F834300288C3
:1009B000838842EA03432C4A4032847A02EBC40221
:1009C0005360027B012A19D1274A0C3212680A436C
:1009D000254B0C331A604288038842EA0343224ABB
:1009E0004032847A42F83430C288838842EA034332
:1009F0001D4A4032847A02EBC4025360C27A3AB98B
:100A0000194A121D12688A43174B1B1D1A6006E013
:100A1000154A121D12680A43134B1B1D1A600289E6
:100A200032B9114A143212688A430F4B14331A60D8
:100A30000289012A06D10C4A143212680A430A4B71
:100A400014331A60427B012A06D1074A1C3212680D
:100A50000A43054B1C331A60034A126822F0010254
:100A6000014B1A6010BD00000066004070B50446DE
:100A70000D46002660692840002871D0B5F5807FBA
:100A80005CD010DC082D35D006DC012D20D0022DE5
:100A900024D0042D72D127E0102D31D0202D35D057
:100AA000402D6BD138E0B5F5004F60D009DCB5F5CD
:100AB000007F49D0B5F5806F4CD0B5F5006F5DD1A2
:100AC0004FE0B5F5803F2DD0B5F5003F56D12FE072
:100AD000A0682D4900F065F9064651E0E068032161
:100AE00000F05FF906464BE0E068082100F059F994
:100AF000064645E0E068102100F053F906463FE065
:100B00002069032100F04DF9064639E020690821EB
:100B100000F047F9064633E02069102100F041F962
:100B200006462DE06068082100F03BF9064627E004
:100B30006068102100F035F9064621E0A069012126
:100B400000F02FF906461BE0A069022100F029F908
:100B5000064615E0A069042100F023F906460FE0DF
:100B60000FE0A069702100F01CF9064608E06068FB
:100B7000042100F016F9064602E0FFE7002600BF58
:100B800000E00026304670BD010101001AB1436942
:100B90000B43436102E043698B434361704730B5C7
:100BA000024600200023146824F002041460146834
:100BB00044F00104146000E05B1C546804F001047C
:100BC0001CB94FF6FF74A342F6D1546804F0010437
:100BD0000CB900206CE08C79012C04D1146844F02D
:100BE0008004146003E0146824F080041460CC795D
:100BF000012C04D1146844F04004146003E014682C
:100C000024F0400414600C7A012C04D1146844F0E0
:100C10002004146003E0146824F0200414604C7A6B
:100C2000012C04D1146844F01004146003E014682B
:100C300024F0100414608C7A012C04D1146844F060
:100C40000804146003E0146824F008041460CC7AEB
:100C5000012C04D1146844F00404146003E0146807
:100C600024F0040414608C78A407CD7844EA056469
:100C70000D7944EA05444D7944EA05540D886D1E0A
:100C80002C43D461146824F001041460002300E0B4
:100C90005B1C546804F001041CB14FF6FF74A342BE
:100CA000F6D1546804F001040CB1002000E00120EA
:100CB00030BD10B500F5D87303EB01131B6803F0CA
:100CC00004031372137A53B900F5D87303EB0113BD
:100CD0001B6840F2FF7404EA5353136009E000F507
:100CE000D87303EB01131B686FF0604404EAD3036D
:100CF000536000F5D87303EB01131B6803F0020384
:100D0000537200F5D87303EB01135B6803F00F0314
:100D1000937200F5D87303EB01135B681B0AD3745D
:100D200000F5D87303EB01139B68D37200F5D873F9
:100D300003EB01139B681C0A147300F5D87303EBD3
:100D400001139B681C0C547300F5D87303EB01135B
:100D50009B681B0E937300F5D87303EB0113DB68DC
:100D6000D37300F5D87303EB0113DB681C0A14740A
:100D700000F5D87303EB0113DB681C0C547400F509
:100D8000D87303EB0113DB681B0E937421B9C3689E
:100D900043F02003C36003E0036943F020030361D1
:100DA00010BD0246002002EA01030BB1012000E061
:100DB000002070470246094B9A4201D2084801E0E0
:100DC0000648103801F000531BB1064B0B40C360BE
:100DD00002E0044B0B408360704700001064024047
:100DE000006002407D0F7D0F21B1026842F00102D8
:100DF000026003E0026822F0010202607047000016
:100E0000016821F001010160002101604160816001
:100E1000C1600161212141614A49884204D13D21DB
:100E2000484A103A91608CE046491831884205D111
:100E30004FF47461434A103A916082E04149303185
:100E4000884205D14FF474113E4A103A916078E01F
:100E50003C494831884205D14FF07461394A103A13
:100E600091606EE037496031884204D13649354A95
:100E7000103AD16065E033497831884204D1334972
:100E8000304A103AD1605CE02E499031884204D15A
:100E90002F492C4A103AD16053E02A49A8318842A0
:100EA00005D14FF03D51274A103AD16049E0294918
:100EB000884204D13D21274A083A116041E0254982
:100EC0001831884205D14FF47461224A083A116002
:100ED00037E020493031884205D14FF474111D4A62
:100EE000083A11602DE01B494831884205D14FF086
:100EF0007461184A083A116023E01649603188424B
:100F000004D11149134A121F11601AE011497831B6
:100F1000884204D10D490F4A121F116011E00D499A
:100F20009031884204D10A490A4A121F116008E030
:100F30000849A831884204D14FF03D51054A121F9B
:100F400011607047106002403D000020400F0020FB
:100F500000003D2010640240014600200A6802F0B3
:100F600001020AB1012000E00020704701464868F4
:100F700080B2704710B500220268134B1A40CC684B
:100F80000B6823434C6923438C692343CC69234377
:100F90000C6A23434C6A23438C6A23434C6B2343E0
:100FA0008C6B23431A430260426922F00702D1E9A5
:100FB0000B3423431A4342610B6943604B688360DF
:100FC0008B68C36010BD00003F801CF010B500F0BE
:100FD0008FFD03484088401C0149488010BD000037
:100FE0001608002010B500F0A3FD00F0E5FD034851
:100FF000C088401C0149C88010BD000016080020B0
:101000001CB50121084600F093FB01208DF8040077
:1010100000208DF806001820009001208DF80700B0
:1010200003208DF805006946014800F003F81CBD57
:1010300000000240F0B50A4600210023002400BF52
:101040003DE0012505FA01F3156805EA03049C4219
:1010500034D105684F000326BE40B54305601579BD
:101060004E00B5400668354305601579012D02D064
:101070001579022D16D185684F000326BE40B54371
:10108000856055794E00B540866835438560456872
:1010900001268E40B5434560456896798E40B6B2CC
:1010A00035434560C5684F000326BE40B543C56063
:1010B000D5794E00B540C6683543C560491C102936
:1010C000BFD3F0BDF0B5002300244D07ED0E02FAAA
:1010D00005F3CE1000F1200555F826504E07F70E07
:1010E0000F26BE40B543CF1000F1200646F827502A
:1010F000CE1000F1200555F8265045EA0304CE1025
:1011000000F1200545F82640F0BD01460A7BCB7A68
:1011100042EA0320704701468B7B4A7B43EA022266
:1011200010B2704730B5034613B94FF6FF7030BDAB
:1011300009E013F8014B82EA0400C0B2054D35F80E
:10114000100080EA2222081EA1F10101F1D110460F
:10115000EDE70000B42F000830B5034605E013F8B2
:10116000010B80EA02040448025D081EA1F101019E
:10117000F5D1104630BD0000B32E000810B504466E
:10118000C648C08A401CC549C88240F20221601A84
:101190008C427DD019DC40F20111A4EB01008C429D
:1011A00058D008DC012C25D0022C2FD0032C39D0AC
:1011B000042C6ED142E0012858D003286AD00428BC
:1011C00069D0B0F5807FF4D19EE005287DD008DCA1
:1011D00001287BD002287AD0032879D00428E8D1CE
:1011E000D8E0062875D0072874D0082873D0FF28C7
:1011F000DFD11FE1AA480288AA49AB48FFF754F89B
:10120000A648007E401CA549087644E1A44802880F
:10121000A449A648FFF748F8A048407E401C9F49D3
:10122000487638E19E4802889E49A148FFF73CF87D
:101230009A48807E401C994988762CE1984802881B
:1012400098499C48FFF730F89448C07E401C934969
:10125000C87620E19248028892499748FFF724F81F
:101260008E48007F401C8D49087714E18C48028825
:101270008C499248FFF718F89048807802281AD1D4
:101280008F488078B8B98D4840788E49097803E056
:1012900048E0FFE020E02BE088420CD1884840780D
:1012A00088490978884206D18748C06A8349C97845
:1012B00008448549C86282488049096801607748C6
:1012C000407F401C75494877E5E07BE038E045E029
:1012D00052E085E092E09FE07148028871497B48C6
:1012E000FEF7E2FF6D48807F401C6C498877D2E0B2
:1012F0006B4802886B497648FEF7D6FF6748C07F87
:10130000401C6649C87700BF6548028865496D483A
:10131000FEF7CAFF614890F82000401C5F4981F841
:101320002000B8E05E4802885E496A48FEF7BCFFCC
:101330005A4890F82100401C584981F82100AAE041
:101340005748028857496448FEF7AEFF534890F863
:101350002200401C514981F822009CE0504802883C
:1013600050495E48FEF7A0FF4C4890F82300401C0F
:101370004A4981F823008EE0494802884949584883
:10138000FEF792FF454890F82400401C434981F83D
:10139000240080E04248028842495248FEF784FF18
:1013A000FFF7A4F84F480078000918B94E480068C4
:1013B0004E490860394890F82500401C374981F8AB
:1013C000250068E03648028836494948FEF76CFF38
:1013D000324890F82600401C304981F826005AE037
:1013E0002F4802882F494348FEF75EFF2B4890F8AC
:1013F0002700401C294981F827004CE02848028832
:1014000028493D48FEF750FF244890F82700401C2B
:10141000224981F827003EE02148028821493748C7
:10142000FEF742FF1D4890F82900401C1B4981F837
:10143000290030E01A4802881A493148FEF734FF83
:101440002F4800782E49497840EA0120B0F5007F06
:1014500018D12B4880782A49C97840EA01211948D7
:101460000078801E81420DD12548007924494979B0
:1014700040EA012013490978884203D12048807945
:1014800020490870054890F82A00401C034981F85B
:101490002A0000E000BF00BF10BD0000600800206F
:1014A000A2010020160B00208C080020D400002090
:1014B00097080020D5000020D8000020DC00002084
:1014C000AC010020B708002030080020E000002018
:1014D000E2000020D2080020E2080020E300002003
:1014E000E4000020E5000020240C0040A8010020BA
:1014F000E6000020ED000020F3000020F7000020AF
:10150000F20800200501002070B5002100230F2201
:10151000C4781CB3174C246804F4E064C4F5E06498
:10152000C4F30721C1F10404E3B20A4144789C40AA
:10153000E1B28478144021430C07210E0E4C05784B
:101540006155047804F01F050124AC4005786D1145
:10155000AD0005F1E025C5F8004109E0047804F08C
:101560001F050124AC40054D0678761145F826404C
:1015700070BD00000CED00E000E400E080E100E060
:10158000C9E00024C2E004EBC400634901EB800021
:10159000007A00287DD16148006804EBC4015E4AEE
:1015A00002EB81010969401A04EBC40102EB8101DD
:1015B00048615A48006804EBC40102EB81010861EC
:1015C00004EBC40102EB810148688047012004EB71
:1015D000C401514A02EB810108725048006804EBD3
:1015E000C40102EB81010969401A04EBC40102EB5A
:1015F0008101886104EBC400114601EB8000C069E1
:1016000004EBC40102EB81018969884206D904EB2D
:10161000C400114601EB8000C06905E004EBC40082
:101620003D4901EB8000806904EBC4013A4A02EBBA
:101630008101C86104EBC400114601EB8000006A1F
:1016400004EBC40102EB81018969884206D204EBF4
:10165000C400114601EB8000006A05E004EBC40001
:101660002D4901EB8000806904EBC4012A4A02EB9A
:101670008101086204EBC400114601EB800080691F
:101680002749096808442649086004EBC40011464C
:1016900000E012E001EB8000C069224909680844BB
:1016A0002049086004EBC400114601EB8000006A89
:1016B0001D49096808441C490860002522E01748B4
:1016C000006805EBC501144A02EB81010969401A63
:1016D00005EBC50102EB8101C968884211D305EB16
:1016E000C500114601EB8000007A022809D00020D5
:1016F00005EBC50102EB81010872AC4201D96C1EF9
:1017000002E06D1C032DDAD300BF641C074800689B
:101710008442FFF438AF34E70C000020240C004072
:1017200000000020040000200800002078000020B5
:1017300029B1064A12680243044B1A6004E0034AC6
:1017400012688243014B1A60704700003038024033
:1017500029B1064A12680243044B1A6004E0034AA6
:1017600012688243014B1A60704700004038024003
:1017700029B1064A12680243044B1A6004E0034A86
:1017800012688243014B1A60704700002038024003
:1017900029B1064A12680243044B1A6004E0034A66
:1017A00012688243014B1A607047000044380240BF
:1017B00029B1064A12680243044B1A6004E0034A46
:1017C00012688243014B1A607047000024380240BF
:1017D000F0B5002100220024022500260223324F0A
:1017E0003F6807F00C0121B1042905D0082937D141
:1017F00005E02E4F076036E02D4F076033E02A4F9B
:101800003F1F3F68C7F38056274F3F1F3F6807F0D1
:101810003F036EB1264FB7FBF3F7DFF88CC0ACF196
:10182000040CDCF800C0CCF3881C07FB0CF40CE0C3
:101830001E4FB7FBF3F7DFF870C0ACF1040CDCF817
:1018400000C0CCF3881C07FB0CF4174F3F1F3F6808
:10185000C7F301477F1C7D00B4FBF5F7076002E08A
:10186000124F076000BF00BF0F4F3F6807F0F00145
:101870000909104F7A5C0768D74047600A4F3F68F4
:1018800007F4E051890A0B4F7A5C4768D7408760BC
:10189000054F3F6807F46041490B064F7A5C476883
:1018A000D740C760F0BD0000083802400024F400B3
:1018B00000127A002002002010B50024A4E05A484B
:1018C0008068005D594908705948007820B10128A6
:1018D00022D006287ED161E054480078A5280FD197
:1018E000002054490870012051490870A521514831
:1018F00002780078401C4F4B18704F4881540AE022
:101900004A480078A52803D101204949087002E01F
:1019100000204749087075E04648007804280ADC32
:1019200042480178434802780078401C414B1870C7
:101930004148815431E03F48007804282DDD3E487D
:1019400040783D49897840EA01203C490880374881
:101950000178384802780078401C364B18703648B9
:1019600081541846017835480088401D814214D1C1
:101970000521314801F066FA012803D106202C49DF
:1019800008700AE029480078A52803D101202849D9
:10199000087002E000202649087033E027480088DC
:1019A000093024490978884209DD20480278214815
:1019B00001780078401C1F4B18701F4842541F4884
:1019C000008809301B490978884219DC0020194930
:1019D000087000E015E016490870184801880931C0
:1019E000154801F00FFA58B1134840791249897926
:1019F00040EA01201249088008460088FFF7BEFB34
:101A000000E000BF00BF641C0748008BA0423FF607
:101A100056AFFA210848FEF78CFC03498868FA2182
:101A2000FEF787FC10BD0000A4000020A1010020EB
:101A3000A0010020A60100200F0B0020A201002021
:101A4000A40100200178427841EA0221C1F30A0191
:101A5000264A11804178C910827841EA4211C1F3C7
:101A60000A01224A518081788911C27841EA8201B3
:101A7000027941EA8221C1F30A011C4A918001796D
:101A80004910427941EAC211C1F30A01174AD180D3
:101A9000017C427C41EA0221C1F30A01134A11810F
:101AA00041790911890891724179C1F30111D1720B
:101AB0008179C27941EA022109B20C4A9181017A05
:101AC000427A41EA02210AB20849CA81817AC27A7D
:101AD00041EA02210AB205490A82027B8A74427BEA
:101AE000CA74817B014A918270470000CE070020B2
:101AF00010B50C490C48FFF75DF900210A48FFF7C3
:101B000073F900BF0848FFF727FA0028FAD1074801
:101B100005497039C867C820486701210248FFF7A6
:101B200063F910BD2080002070600240FB0400209B
:101B300010B51D491D48FFF73DF900211B48FFF76F
:101B400053F91B48008810B1012818D10BE011206F
:101B500018490870422048703F2088701220C870D1
:101B60000D20087100BF11201249087043204870F1
:101B70003F2088701320C8700D20087100BF00BF7F
:101B800000BF0A48FFF7E8F90028FAD109480749D9
:101B90000C31086005200549A039C1F8A4000121D5
:101BA0000248FFF721F910BD00802020A06002400C
:101BB0007E0000209000002010B51C491C48FFF753
:101BC000F9F800211A48FFF70FF91A48008810B1F8
:101BD000012818D10BE011201749087042204870E5
:101BE0003F2088701220C8700D20087100BF11209E
:101BF00011490870432048703F2088701320C87036
:101C00000D20087100BF00BF00BF0948FFF7A4F90D
:101C10000028FAD108480649583948660520C865A1
:101C200001210348FFF7E0F810BD00000080001814
:101C3000586002407E0000209500002000B5334827
:101C400080793038010431484079303801EB003177
:101C50002E480079303801EB00212C48C07830380C
:101C600001EB0011294880783038084400EE100A52
:101C7000B8EEC00A264880ED000A2449C8792549F3
:101C800001F0F7F82348008801280BD1214840884B
:101C900040B91F4890ED000ADFED1F0A20EE200A30
:101CA00080ED000A1D488079303801041B484079D6
:101CB000303801EB003119480079303801EB002150
:101CC0001648C078303801EB00111448807830385D
:101CD000084400EE100AB8EEC00A114880ED000A70
:101CE0000E49C8790F4901F0C4F80E480088012850
:101CF0000BD10C48408840B9054890ED000ADFED53
:101D0000060A20EE200A80ED000A00BDC40400206F
:101D100088000020A4040020CDCCCC3DC3050020C9
:101D20008C000020B40400200CB50020019000902D
:101D30003448006840F480303249086000BF3148C0
:101D4000006800F4003000900198401C0190009859
:101D500018B90198B0F5A04FF1D12A48006800F4F5
:101D6000003010B10120009001E0002000900098A8
:101D7000012846D123484030006840F08050214976
:101D8000403108602048006840F440401E49086027
:101D90001C48083000681B49083108600846006884
:101DA00040F4004008600846006840F4A050086015
:101DB0001648091F0860081F006840F08070091F5E
:101DC000086000BF0F48006800F000700028F9D0DC
:101DD00040F205700E4908600A480830006820F09B
:101DE00003000849083108600846006840F0020016
:101DF000086000BF03480830006800F00C000828A5
:101E0000F8D10CBD00380240007000400854400773
:101E1000003C024010B51548006840F470001349BA
:101E200008601348006840F0010011490860002074
:101E30000F49083108600E4800680E4908400C49F7
:101E400008600D48091D0860081F006820F4802004
:101E5000091F0860002006490C310860FFF764FF85
:101E60004FF0006001498039086010BD88ED00E046
:101E700000380240FFFFF6FE10300024054840887D
:101E800004490880002048800846C08888800020D7
:101E9000C8807047160800200EB501210820FFF702
:101EA00057FC5320ADF800004FF0FF3001900020A8
:101EB000ADF80200ADF808006946044800F0E6F904
:101EC0000121024800F0C2F80EBD0000000C0040E5
:101ED00030B58BB004460D4601210420FFF728FCE5
:101EE0004FF44070099002208DF8280003208DF8EF
:101EF000290000208DF82A0001208DF82B000322F4
:101F000008212248FFF7DEF8032209211F48FFF7C6
:101F1000D9F809A91D48FFF78DF801210220FFF724
:101F200037FCA8B2ADF818000020ADF81A000794ED
:101F3000ADF8200006A9164800F0A8F96020ADF819
:101F400004000120ADF806000020ADF8100001A942
:101F50000F4800F0F7F801A90D4800F04DF90821ED
:101F60000B4800F03FF90821094800F081F90121F0
:101F7000074800F05FF80121054800F073F80121DF
:101F8000034800F063F80BB030BD000000080240C9
:101F90000004014030B58BB004460D4601210846CF
:101FA000FFF7C6FB0820099002208DF828000320C7
:101FB0008DF8290000208DF82A0001208DF82B00D3
:101FC000032211461948FFF77DF809A91748FFF7C2
:101FD00031F801210804FFF7DBFBA8B2ADF81800C7
:101FE0000020ADF81A000794ADF8200006A91048AB
:101FF00000F04CF96020ADF804000120ADF80600B7
:102000000020ADF8100001A9094800F03BF80821B4
:10201000074800F089F80121054800F00BF801217C
:10202000034800F013F80BB030BD00000000024080
:102030000040014021B1028842F08002028004E0A9
:1020400002884FF67F731A400280704721B10288E0
:1020500042F00102028004E002884FF6FE731A404B
:102060000280704731B1B0F8442042F40042A0F839
:10207000442005E0B0F84420C2F30E02A0F844204A
:102080007047000070B5002400220023058C4FF635
:10209000EF7635400584028C8388048B48F6FF7503
:1020A0002C404FF6FF452C400D884FF6FF7606EA90
:1020B00005252C434FF6DF752A408D8906EA051564
:1020C0002A434D8806EA05152A43154DA84202D039
:1020D000144DA8421DD14FF67F752A40CD894FF689
:1020E000FF7606EA05152A434FF6BF752A408D880C
:1020F00006EA05152A434FF6FF352B404FF2FF75D0
:102100002B400D8A06EA85052B434D8A06EA850594
:102110002B43838004838D688563028470BD000037
:1021200000000140000401400A460021018B4FF2EB
:10213000FF7319404FF6FF7303EA0223194301832B
:102140007047000070B5002400220023058C4FF674
:10215000FF6635400584028C8388848B4FF68F752B
:102160002C404FF6FC752C400D882C434FF6FF5544
:102170002A408D894FF6FF7606EA05252A434D88C9
:1021800006EA05252A43154DA84202D0144DA8425F
:102190001DD14FF2FF752A40CD894FF6FF7606EA32
:1021A00005252A434FF6FF352A408D8806EA052586
:1021B0002A434EF6FF752B404DF6FF752B400D8AD6
:1021C00006EA05152B434D8A06EA05152B43838045
:1021D00084838D68C563028470BD000000000140E7
:1021E000000401400A460021818B4FF6F773194025
:1021F000114381837047000070B500220023002442
:10220000058C4EF6FF7635400584038C8488828BDE
:1022100048F6FF752A404FF6FF452A400D884FF6D5
:10222000FF7606EA05252A434DF6FF752B408D897A
:1022300006EA05352B434D8806EA05352B430A4D42
:10224000A84202D0094DA84208D14BF6FF752C4098
:102250000D8A4FF6FF7606EA85152C43848082832B
:102260008D680564038470BD0000014000040140D6
:102270000A460021818B4FF2FF7319404FF6FF731E
:1022800003EA022319438183704700000022028879
:10229000184B98420ED0184B98420BD0B0F1804F9B
:1022A00008D0164B984205D0154B984202D0154BDA
:1022B000984204D14FF68F731A404B881A43124B41
:1022C000984207D0114B984204D04FF6FF431A4072
:1022D0000B891A4302804B68C3620B880385054B48
:1022E000984202D0044B984201D18B7A0386012395
:1022F0008382704700000140000401400004004058
:1023000000080040000C0040001000400014004095
:1023100000B597B00121C804FFF71AFA0121564809
:10232000FFF706FA08220A215448FEF7CBFE0822DE
:102330000B215248FEF7C6FE00208DF85A000120FE
:102340008DF85B0002208DF858008DF859004FF48D
:102350004060159015A94948FEF76CFE34208DF8B1
:10236000400000208DF8410006208DF84200012039
:102370008DF8430010A8FFF7C7F84FF4E120119043
:102380000020ADF84800ADF84A00ADF84C00ADF8BB
:1023900050000C20ADF84E0011A9394800F06CFC3B
:1023A000012240F22441364800F040FC012134482B
:1023B00000F084FB01224021314800F08BFB012218
:1023C00080212F4800F086FB2E48FEF719FD00BF44
:1023D0002C48FEF7C1FD0128FAD04FF000600190B3
:1023E0002748001D02902848039040200490C820F0
:1023F0000590002006904FF4806007900020089020
:1024000009900A904FF400300B9000200C900D9032
:102410000E900F9001A91B48FEF7ACFD0021194852
:10242000FEF7E2FC17483038FEF7EAFC00BF15481B
:102430003038FEF791FD0128F9D04FF0006001908F
:102440000F48001D029011480390002004902D2099
:1024500005904FF480700A904FF440300B9001A922
:1024600008483038FEF786FD012106483038FEF76F
:10247000BBFC17B000BD00000400200000080240B3
:10248000004C004070600240FB040020CE0400209D
:1024900010B540F22441054800F09EFB20B10348EE
:1024A00000880248001D008810BD0000004C00405C
:1024B00000B597B0002015901690119012901390CF
:1024C000149010903C2101A8FDF755FF012108054B
:1024D000FFF73EF901210420FFF72AF90121480501
:1024E000FFF726F908220C215948FEF7EBFD0822D8
:1024F00002215848FEF7E6FD00208DF85A00012021
:102500008DF85B0002208DF8580003208DF85900EB
:102510004FF48050159015A94D48FEF78BFD04200F
:10252000159015A94B48FEF785FD4B4800F0DCFAE5
:102530004FF4E13011900020ADF84800ADF84A00AA
:10254000ADF84C00ADF850000C20ADF84E0011A9CC
:10255000414800F091FB012240F224413E4800F046
:1025600065FB01213C4800F0A9FA012280213A488C
:1025700000F0B0FA01224021374800F0ABFA3520D4
:102580008DF8400000208DF8410006208DF84200B3
:1025900001208DF8430010A8FEF7B6FF2F48FEF784
:1025A0002FFC00BF2D48FEF7D7FC0128FAD04FF0D2
:1025B000006001902848001D0290294803904020A7
:1025C00004904FF4FA700590002006904FF480605C
:1025D00007900020089009900A904FF440300B902B
:1025E00000200C900D900E900F9001A91B48FEF753
:1025F000C1FC00211948FEF7F7FB1848A838FEF780
:10260000FFFB00BF1548A838FEF7A6FC0128F9D04B
:102610004FF0006001901048001D02901148039097
:10262000002004904FF4FA7005904FF480700A90E7
:102630004FF440300B9001A90848A838FEF79AFCE7
:1026400001210648A838FEF7CFFB17B000BD0000F7
:1026500000080240000C024000500040B8600240F8
:10266000240400203002002010B540F224410A4822
:1026700000F0B2FA01280DD107480088064880888A
:10268000064800F063FBFFF717F90548C08A401CB5
:102690000349C88210BD000000500040A400002083
:1026A0001608002010B540F224410E4800F094FABC
:1026B000B8B10C4800880B4880880B48FFF7C2F976
:1026C00000210A48FEF790FB12200849091D086006
:1026D00001210648FEF788FB05484089401C044953
:1026E000488110BD00100140AA070020406402404C
:1026F0001608002000B597B001214804FFF728F81C
:1027000001210820FFF714F801214805FFF710F810
:10271000072205215648FEF7D5FC0722062154481A
:10272000FEF7D0FC6020159002208DF858008DF83F
:10273000590000208DF85A0001208DF85B0015A982
:102740004B48FEF777FC4FF4165011900020ADF87F
:102750004800ADF84A00ADF84C00ADF850000C2030
:10276000ADF84E0011A9434800F086FA26208DF8F6
:10277000040001208DF8050000208DF806000120DE
:102780008DF8070001A8FEF7BFFE3B48FEF738FBB7
:102790004FF0006002903748001D039037480490C6
:1027A000002005900A200690002007904FF48060DA
:1027B0000890002009900A904FF480700B904FF41D
:1027C00040300C9000200D900E900F90109002A9B8
:1027D0002948FEF7CFFB28481830FEF711FB00BF51
:1027E00025481830FEF7B8FB0128F9D04FF00060FB
:1027F00002902048001D039021480490402005903D
:1028000005200690002007904FF48060089000207B
:1028100009900A900B904FF440300C9000200D90DE
:102820000E900F90109002A913481830FEF7A2FBEB
:102830000121104800F042F9012240F224410D48E4
:1028400000F0F4F9012240210A4800F043F9012286
:102850008021084800F03EF901210748FEF7C4FA3C
:10286000002105481830FEF7BFFA17B000BD000080
:10287000000C02400044004088600240C404002074
:102880009000002010B540F224410E4800F0A4F959
:10289000B8B10C4800880B48001D0088FFF7CEF93E
:1028A00000210948FEF7A0FA12200749091D086017
:1028B00001210548FEF798FA0448C089401C0349E5
:1028C000C88110BD00440040886002401608002006
:1028D00000B597B0002015901690119012901390AB
:1028E000149010903C2101A8FDF745FD01215A48A4
:1028F000FEF71EFF01218804FEF72AFF07220821A8
:102900005648FEF7DFFB072209215448FEF7DAFBA1
:1029100000208DF85A0001208DF85B0002208DF810
:1029200058004FF44070159002208DF8590015A9F9
:102930004A48FEF77FFB4A4800F0D6F84FF416509D
:1029400011900020ADF84800ADF84A00ADF84C00F9
:10295000ADF850000C20ADF84E0011A9404800F031
:102960008BF9012240F224413D4800F05FF901213A
:102970003B4800F0A3F801228021394800F0AAF872
:1029800001224021364800F0A5F827208DF84000AC
:1029900000208DF841000A208DF8420001208DF8BA
:1029A000430010A8FEF7B0FD2E48FEF729FA00BF3D
:1029B0002C48FEF7D1FA0128FAD04FF000600190C0
:1029C0002748001D029028480390402004900520CD
:1029D0000590002006904FF480600790002008903A
:1029E00009900A904FF440300B9000200C900D900D
:1029F0000E900F9001A91B48FEF7BCFA0021194860
:102A0000FEF7F2F917483038FEF7FAF900BF15481B
:102A10003038FEF7A1FA0128F9D04FF0006001909C
:102A20000F48001D029011480390002004900A20D6
:102A300005904FF480700A904FF440300B9001A93C
:102A400008483038FEF796FA012106483038FEF77C
:102A5000CBF917B000BD000008002000000C0240B8
:102A6000004800405860024095000020C305002047
:102A700010B540F224410E4800F0AEF8B8B10C4851
:102A800000880B48001D0088FFF7D8F8002109488E
:102A9000FEF7AAF9122007492839C8620121054822
:102AA000FEF7A2F90448408A401C0349488210BD41
:102AB00000480040286002401608002021B18289A9
:102AC00042F40052828104E082894DF6FF731A407D
:102AD000828170471AB1838A0B43838202E0838A22
:102AE0008B4383827047000010B50446324884420D
:102AF00008D101211020FEF75BFE00211020FEF717
:102B000057FE57E02D48844209D101214804FEF7C1
:102B10002FFE00214FF40030FEF72AFE4AE028483D
:102B2000844209D101218804FEF722FE00214FF4DE
:102B30008020FEF71DFE3DE02248844209D101219C
:102B4000C804FEF715FE00214FF40020FEF710FE2A
:102B500030E01D48844209D101210805FEF708FE36
:102B600000214FF48010FEF703FE23E01748844253
:102B700008D101212020FEF71BFE00212020FEF7B6
:102B800017FE17E01248844209D101218807FEF799
:102B9000EFFD00214FF08040FEF7EAFD0AE00D480E
:102BA000844207D101214005FEF7E2FD00216005C6
:102BB000FEF7DEFD10BD00000010014000440040A3
:102BC00000480040004C004000500040001401400C
:102BD00000780040007C004070B5024600240023CD
:102BE0000025002040F66A16B14200D100BFC1F3B3
:102BF000421501F01F03012606FA03F3012D02D14D
:102C00009689334006E0022D02D1168A334001E056
:102C1000968A33400C12012606FA04F416883440D2
:102C200013B10CB1012000E0002070BDF0B50346E7
:102C3000002400260025002040F66A17B94200D182
:102C400000BF1846C1F3421401F01F06012707FA1E
:102C500006F5012C01D10C3004E0022C01D110301A
:102C600000E014301AB107682F43076002E00768DC
:102C7000AF430760F0BD00002DE9FF4705460E4653
:102C80000024A14600BFA046B08900B100BF2C8A35
:102C900024F44054F08804432C82AC8941F20C6047
:102CA0008443B08831890843718908430443AC8167
:102CB000AC8A24F44074B0890443AC826846FEF7C1
:102CC00087FD2048854202D01F48854202D1DDF8A9
:102CD0000C9001E0DDF80890A88900F4004040B1B4
:102CE00009EBC90000EB091031684900B0FBF1F7AE
:102CF00007E009EBC90000EB091031688900B0FB5F
:102D0000F1F76420B7FBF0F004012009642101FB16
:102D10001078A88900F4004040B1322000EBC800D0
:102D2000B0FBF1F000F00700044308E0322000EBB4
:102D300008106421B0FBF1F000F00F0004432C8177
:102D4000BDE8FF87001001400014014010B50446A3
:102D50006068FEF70BF9618A081AA082E08A218B6D
:102D60000844E082E08A618A884206DBE08A618A60
:102D700090FBF1F201FB1200E082E08AA18A884216
:102D800015DAA08AE18A401A2083208B218A8842A2
:102D900035DC002007E0E28AE1681144095CA268A2
:102DA0001154411C88B2218B8142F4DC27E0A08AB7
:102DB000618A0844E18A401A2083208B218A884254
:102DC0001DDC002007E0E28AE1681144095CA2688A
:102DD0001154411C88B2218BA28A891A8142F2DCEB
:102DE000002009E0E168095C238BA2681A44A38AE9
:102DF000D21A1154411C88B2A18A8142F2DC208B84
:102E000010BD000070B505460C4600260DB1022C21
:102E100001D8002070BDA11E094802882846FEF78F
:102E200081F90646F1B2A01E285C814206D1601EDF
:102E3000285CB0EB162F01D10120EBE70020E9E779
:102E40001E02002070B505460C4600260DB1022C6E
:102E500001D8002070BD611EFF222846FEF77CF9D4
:102E60000646601E285CB04201D10120F2E7002036
:102E7000F0E710B50A4607210CE0034600EBD374D7
:102E80006410A0EB440422F8114000EBD374C4F3A7
:102E90004700491E0029F0DA10BD10B5FDF728FBE8
:102EA000FEF76EFB002010BD4FF04070E1EE100AFF
:102EB0007047FF005EBCE2613FDD83C29C7E20A3C1
:102EC000FD1F419DC3217FFCA2401E5F01E3BD3E6B
:102ED0006082DC237D9FC1421CFEA0E1BF5D0380B8
:102EE000DE3C62BEE0025CDF81633D7C22C09E1D51
:102EF00043A1FF4618FAA427799BC584DA3866E512
:102F0000BB5907DB856739BAE406581947A5FB7832
:102F100026C49A653BD987045AB8E6A7F91B45C66B
:102F2000987A24F8A6441A99C7257B3A6486D85B18
:102F300005E7B98CD2306EEDB3510F4E10F2AC2FC5
:102F40007193CD114FADF3702ECC92D38D6F31B202
:102F5000EC0E50AFF1134DCE90722C6D33D18F0C1F
:102F600052B0EE326C8ED0530DEFB1F0AE4C1291E8
:102F7000CF2D73CA947628ABF517490856B4EA6981
:102F800037D58B5709EBB536688AD495CB2977F4BA
:102F9000AA4816E9B7550B88D6346A2B7597C94AE3
:102FA00014F6A8742AC896154BA9F7B6E80A54D7A0
:102FB000896B35000000891112239B322446AD57DE
:102FC0003665BF74488CC19D5AAFD3BE6CCAE5DB71
:102FD0007EE9F7F88110080193331A22A5562C4791
:102FE000B7753E64C99C408DDBBF52AEEDDA64CB51
:102FF000FFF976E802218B30100299132667AF762D
:103000003444BD554AADC3BC588ED19F6EEBE7FA30
:103010007CC8F5D983310A2091121803A7772E6650
:10302000B5543C45CBBD42ACD99E508FEFFB66EA10
:10303000FDD874C904428D5316619F702004A915F0
:103040003227BB364CCEC5DF5EEDD7FC6888E199F0
:103050007AABF3BA85520C4397711E60A114280510
:10306000B3373A26CDDE44CFDFFD56ECE9986089D0
:10307000FBBB72AA06638F7214409D512225AB34AC
:103080003006B9174EEFC7FE5CCCD5DD6AA9E3B8B0
:10309000788AF19B87730E6295501C41A3352A24D0
:1030A000B1163807CFFF46EEDDDC54CDEBB962A890
:1030B000F99A708B088481951AA793B62CC2A5D370
:1030C0003EE1B7F04008C919522BDB3A644EED5F80
:1030D000766DFF7C899400859BB712A6ADD224C380
:1030E000BFF136E0C1184809D33B5A2AE55E6C4F60
:1030F000F77D7E6C0AA583B4188691972EE3A7F21C
:103100003CC0B5D14229CB38500AD91B666FEF7E3F
:10311000744CFD5D8BB502A499961087AFF326E23F
:10312000BDD034C1C3394A28D11A580BE77F6E6E1F
:10313000F55C7C4D0CC685D71EE597F42880A191DF
:103140003AA3B3B2444ACD5B5669DF78600CE91DFF
:10315000722FFB3E8DD604C79FF516E4A9902081FF
:10316000BBB332A2C55A4C4BD7795E68E11C680DDF
:10317000F33F7A2E0EE787F61CC495D52AA1A3B09B
:103180003882B193466BCF7A5448DD59622DEB3CBF
:10319000700EF91F8FF706E69DD414C5ABB122A0BF
:1031A000B9923083C77B4E6AD5585C49E33D6A2C9F
:1031B000F11E780F446174615F53656E645F546102
:1031C000736B0000446174615F53656E645F5365A7
:1031D0006E736F725F5461736B0000005379737488
:1031E000656D4D6F6E69746F725461736B00000092
:1031F000103200080000002030020000C401000866
:10320000183300083002002080100000200200085F
:10321000C113DC3114087D1E4208041140420F1A0C
:10322000FF011AB4244BCD0F240312E80329241AFA
:10323000C4240A1DE5242917022801125010084051
:1032400010600240B006142030021320FA0A27F45E
:103250003B012515025959591C585831041A32049A
:103260001A33041A34041A35041A36043237130A8E
:10327000011B200E041A12041A16041A1A041A1E2C
:10328000041A2204144650311C465032041A3304E6
:103290001A34041A35041A360412371A44201A480C
:1032A000041A4C041A50041A54041A58041A5C04E0
:1032B0002A5338134646144C4C4C14424242145282
:1032C00052521A80181A84041A88041A8C040114A1
:1032D000230302B201280820543A20202043052A63
:1032E00056052A50052A5305144F3A20181020433A
:1032F0004150205741524E494E47212121169901F4
:1033000011C90FD9011143FFFF2D01020304040568
:08331000000607080900000097
:040000050800018965
:00000001FF
