:020000040800F2
:10000000480A0020290200083102000833020008D3
:10001000350200083702000839020008000000001D
:100020000000000000000000000000003B0200088B
:100030003D020008000000003F02000841020008E5
:10004000430200084302000843020008430200087C
:10005000430200084302000843020008430200086C
:10006000430200084302000843020008430200085C
:10007000430200084302000843020008430200084C
:10008000430200084302000843020008430200083C
:10009000430200084302000843020008430200082C
:1000A000430200084302000843020008430200081C
:1000B000430200084302000843020008430200080C
:1000C00043020008430200084302000843020008FC
:1000D000430200088D1300081115000843020008B0
:1000E00043020008430200084302000843020008DC
:1000F00043020008430200084302000843020008CC
:1001000043020008430200084302000843020008BB
:1001100043020008430200084302000843020008AB
:10012000430200084302000843020008430200089B
:10013000430200084302000843020008430200088B
:10014000430200084302000843020008430200087B
:10015000430200084302000843020008430200086B
:10016000430200084302000843020008430200085B
:10017000430200084302000843020008430200084B
:10018000430200084302000800F002F800F03CF8C7
:100190000AA090E8000C82448344AAF10107DA45E2
:1001A00001D100F031F8AFF2090EBAE80F0013F0F8
:1001B000010F18BFFB1A43F0010318479416000003
:1001C000B4160000103A24BF78C878C1FAD8520794
:1001D00024BF30C830C144BF04680C6070470000C1
:1001E0000023002400250026103A28BF78C1FBD840
:1001F000520728BF30C148BF0B6070471FB501F0E0
:1002000017FB1FBD10B510BD00F036F81146FFF703
:10021000F5FF01F0F1FA00F054F803B4FFF7F2FF34
:1002200003BC00F057F80000094880470948004720
:10023000FEE7FEE7FEE7FEE7FEE7FEE7FEE7FEE796
:10024000FEE7FEE704480549054A064B70470000F3
:10025000990E00088901000848040020480A00207F
:10026000480600204806002070477047704700008D
:1002700000487047E40300207546FFF7F9FFAE46DB
:1002800005006946534620F00700854618B020B5A2
:10029000FFF7D8FFBDE820404FF000064FF0000701
:1002A0004FF000084FF0000B21F00701AC46ACE81E
:1002B000C009ACE8C009ACE8C009ACE8C0098D468B
:1002C000704710B50446AFF300802046BDE81040EB
:1002D000FFF7A3BF01491820ABBEFEE726000200CE
:1002E000704710B500F016FE00F012F800F08AF822
:1002F00040F28F6140F2CF7000F08AFE40F28F61D1
:1003000040F2CF7000F022FE01F042F810BD000074
:1003100000B58BB00121022000F084FC01214806C9
:1003200000F090FC4FF44070029002208DF80C0019
:100330008DF80D0000208DF80E0001208DF80F00C3
:1003400002A92E4800F0EEFA092208212B4800F0FD
:1003500031FB09221146294800F02CFB00208DF8C2
:10036000260001208DF827008DF8280000208DF848
:1003700029008DF82A0001208DF82B0000208DF82F
:1003800022008DF8230008208DF8240003208DF82A
:100390002500ADF8200008A9194800F036F9002022
:1003A0008DF81A008DF81B0001208DF81C0000202C
:1003B000ADF81000ADF81200ADF81400ADF816005D
:1003C000ADF8180001208DF81D0004A800F090F889
:1003D000012202210A4800F00FF914208DF80400D0
:1003E00001208DF807008DF8050002208DF8060029
:1003F00001A800F003FB0BB000BD000000040240A8
:100400000064004000B58BB00121880600F01AFCA2
:100410006020029002208DF80C008DF80D00002065
:100420008DF80E0001208DF80F0002A92E4800F073
:1004300079FA092205212C4800F0BCFA092206218C
:10044000294800F0B7FA00208DF8260001208DF829
:1004500027008DF8280000208DF829008DF82A004B
:1004600001208DF82B0000208DF8230008208DF846
:10047000240003208DF82500ADF8200008A91B48B2
:1004800000F0C3F80E208DF81A0000208DF81B0034
:1004900001208DF81C000020ADF81000ADF812000E
:1004A000ADF81400ADF81600ADF8180001208DF875
:1004B0001D0004A800F01CF80E208DF81A0001227F
:1004C00002210A4800F098F840208DF8040001202D
:1004D0008DF807008DF8050003208DF8060001A8AF
:1004E00000F08CFA0BB000BD000402400068004030
:1004F00010B50021837A012202FA03F13D4A126805
:1005000042F001023B4B1A603A4A1C3212688A439D
:10051000384B1C331A60027BCAB9364A0C32126857
:100520008A43344B0C331A604288C38842EA03433F
:10053000304A4032847A42F834300288838842EA72
:1005400003432C4A4032847A02EBC4025360027B9C
:10055000012A19D1274A0C3212680A43254B0C3361
:100560001A604288038842EA0343224A4032847A6E
:1005700042F83430C288838842EA03431D4A40323D
:10058000847A02EBC4025360C27A3AB9194A121D46
:1005900012688A43174B1B1D1A6006E0154A121D8C
:1005A00012680A43134B1B1D1A60028932B9114AA3
:1005B000143212688A430F4B14331A600289012ADD
:1005C00006D10C4A143212680A430A4B14331A60DB
:1005D000427B012A06D1074A1C3212680A43054BA6
:1005E0001C331A60034A126822F00102014B1A60A0
:1005F00010BD0000006600401AB143690B4343611F
:1006000002E043698B434361704730B502460020E6
:100610000023146824F002041460146844F00104F8
:10062000146000E05B1C546804F001041CB94FF630
:10063000FF74A342F6D1546804F001040CB9002001
:100640006CE08C79012C04D1146844F080041460AF
:1006500003E0146824F080041460CC79012C04D1E8
:10066000146844F04004146003E0146824F040046B
:1006700014600C7A012C04D1146844F02004146036
:1006800003E0146824F0200414604C7A012C04D197
:10069000146844F01004146003E0146824F010049B
:1006A00014608C7A012C04D1146844F0080414609E
:1006B00003E0146824F008041460CC7A012C04D1FF
:1006C000146844F00404146003E0146824F0040483
:1006D00014608C78A407CD7844EA05640D7944EA67
:1006E00005444D7944EA05540D886D1E2C43D461B0
:1006F000146824F001041460002300E05B1C5468BB
:1007000004F001041CB14FF6FF74A342F6D1546803
:1007100004F001040CB1002000E0012030BD21B143
:10072000026842F00102026003E0026822F0010266
:1007300002607047016821F0010101600021016041
:1007400041608160C1600161212141614A49884263
:1007500004D13D21484A103A91608CE04649183155
:10076000884205D14FF47461434A103A916082E0A7
:1007700041493031884205D14FF474113E4A103A54
:10078000916078E03C494831884205D14FF074616E
:10079000394A103A91606EE037496031884204D19D
:1007A0003649354A103AD16065E03349783188429C
:1007B00004D13349304A103AD1605CE02E4990317F
:1007C000884204D12F492C4A103AD16053E02A497B
:1007D000A831884205D14FF03D51274A103AD160E7
:1007E00049E02949884204D13D21274A083A11604D
:1007F00041E025491831884205D14FF47461224AFD
:10080000083A116037E020493031884205D14FF471
:1008100074111D4A083A11602DE01B494831884285
:1008200005D14FF07461184A083A116023E0164967
:100830006031884204D11149134A121F11601AE035
:1008400011497831884204D10D490F4A121F1160B5
:1008500011E00D499031884204D10A490A4A121F19
:10086000116008E00849A831884204D14FF03D5199
:10087000054A121F11607047106002403D000020C1
:10088000400F002000003D2010640240014600207F
:100890000A6802F001020AB1012000E0002070475E
:1008A0000146486880B2704710B500220268134BB9
:1008B0001A40CC680B6823434C6923438C6923435B
:1008C000CC6923430C6A23434C6A23438C6A234339
:1008D0004C6B23438C6B23431A430260426922F022
:1008E0000702D1E90B3423431A4342610B69436089
:1008F0004B6883608B68C36010BD00003F801CF0B4
:1009000010B5002407E02146044800F07CFF0449AC
:1009100041F82400641C402CF5DB10BDE8020020E7
:10092000A8020020F0B50A4600210023002400BFE1
:100930003DE0012505FA01F3156805EA03049C4230
:1009400034D105684F000326BE40B54305601579D4
:100950004E00B5400668354305601579012D02D07B
:100960001579022D16D185684F000326BE40B54388
:10097000856055794E00B540866835438560456889
:1009800001268E40B5434560456896798E40B6B2E3
:1009900035434560C5684F000326BE40B543C5607A
:1009A000D5794E00B540C6683543C560491C10294D
:1009B000BFD3F0BDF0B5002300244D07ED0E02FAC1
:1009C00005F3CE1000F1200555F826504E07F70E1E
:1009D0000F26BE40B543CF1000F1200646F8275041
:1009E000CE1000F1200555F8265045EA0304CE103C
:1009F00000F1200545F82640F0BD000070B500214B
:100A000000230F22C4781CB3174C246804F4E0645C
:100A1000C4F5E064C4F30721C1F10404E3B20A4160
:100A200044789C40E1B28478144021430C07210EA5
:100A30000E4C05786155047804F01F050124AC4084
:100A400005786D11AD0005F1E025C5F8004109E01C
:100A5000047804F01F050124AC40054D067876119A
:100A600045F8264070BD00000CED00E000E400E019
:100A700080E100E0C9E00024C2E004EBC400634967
:100A800001EB8000007A00287DD16148006804EB0A
:100A9000C4015E4A02EB81010969401A04EBC401FA
:100AA00002EB810148615A48006804EBC40102EB83
:100AB0008101086104EBC40102EB810148688047B1
:100AC000012004EBC401514A02EB81010872504835
:100AD000006804EBC40102EB81010969401A04EBD0
:100AE000C40102EB8101886104EBC400114601EBF3
:100AF0008000C06904EBC40102EB8101896988426E
:100B000006D904EBC400114601EB8000C06905E082
:100B100004EBC4003D4901EB8000806904EBC40193
:100B20003A4A02EB8101C86104EBC400114601EBB3
:100B30008000006A04EBC40102EB810189698842EC
:100B400006D204EBC400114601EB8000006A05E008
:100B500004EBC4002D4901EB8000806904EBC40163
:100B60002A4A02EB8101086204EBC400114601EB42
:100B7000800080692749096808442649086004EB19
:100B8000C400114600E012E001EB8000C069224978
:100B9000096808442049086004EBC400114601EBD1
:100BA0008000006A1D49096808441C490860002546
:100BB00022E01748006805EBC501144A02EB8101E9
:100BC0000969401A05EBC50102EB8101C968884239
:100BD00011D305EBC500114601EB8000007A022815
:100BE00009D0002005EBC50102EB81010872AC427F
:100BF00001D96C1E02E06D1C002DDAD000BF641C10
:100C0000074800688442FFF438AF34E70C00002046
:100C1000240C0040000000200400002008000020F8
:100C20003000002029B1064A12680243044B1A60C2
:100C300004E0034A12688243014B1A6070470000C7
:100C40003038024029B1064A12680243044B1A6048
:100C500004E0034A12688243014B1A6070470000A7
:100C60004038024029B1064A12680243044B1A6018
:100C700004E0034A12688243014B1A607047000087
:100C80002038024029B1064A12680243044B1A6018
:100C900004E0034A12688243014B1A607047000067
:100CA0004438024029B1064A12680243044B1A60D4
:100CB00004E0034A12688243014B1A607047000047
:100CC00024380240F0B5002100220024022500262D
:100CD0000223324F3F6807F00C0121B1042905D0EF
:100CE000082937D105E02E4F076036E02D4F076009
:100CF00033E02A4F3F1F3F68C7F38056274F3F1FFF
:100D00003F6807F03F036EB1264FB7FBF3F7DFF8FC
:100D10008CC0ACF1040CDCF800C0CCF3881C07FBE1
:100D20000CF40CE01E4FB7FBF3F7DFF870C0ACF12A
:100D3000040CDCF800C0CCF3881C07FB0CF4174F44
:100D40003F1F3F68C7F301477F1C7D00B4FBF5F7E9
:100D5000076002E0124F076000BF00BF0F4F3F68FF
:100D600007F0F0010909104F7A5C0768D740476027
:100D70000A4F3F6807F4E051890A0B4F7A5C4768D5
:100D8000D7408760054F3F6807F46041490B064F25
:100D90007A5C4768D740C760F0BD00000838024061
:100DA0000024F40000127A005E0000200CB5002040
:100DB000019000903448006840F480303249086067
:100DC00000BF3148006800F4003000900198401CDA
:100DD0000190009818B90198B0F5A04FF1D12A48B8
:100DE000006800F4003010B10120009001E0002004
:100DF00000900098012846D123484030006840F018
:100E000080502149403108602048006840F440404B
:100E10001E4908601C48083000681B4908310860FA
:100E20000846006840F4004008600846006840F446
:100E3000A05008601648091F0860081F006840F0AD
:100E40008070091F086000BF0F48006800F0007044
:100E50000028F9D040F205700E4908600A480830B1
:100E6000006820F00300084908310860084600685F
:100E700040F00200086000BF03480830006800F03E
:100E80000C000828F8D10CBD00380240007000406A
:100E900008544007003C024010B51548006840F473
:100EA0007000134908601348006840F001001149C0
:100EB000086000200F49083108600E4800680E499C
:100EC00008400C4908600D48091D0860081F0068AB
:100ED00020F48020091F0860002006490C310860BA
:100EE000FFF764FF4FF0006001498039086010BDD2
:100EF00088ED00E000380240FFFFF6FE10300024CD
:100F0000034840880249088000204880704700005C
:100F1000560000200EB501210820FFF793FE532054
:100F2000ADF800004FF0FF3001900020ADF8020056
:100F3000ADF808006946044800F0E6F901210248CE
:100F400000F0C2F80EBD0000000C004030B58BB0C0
:100F500004460D4601210420FFF764FE4FF4407063
:100F6000099002208DF8280003208DF82900002028
:100F70008DF82A0001208DF82B0003220821224839
:100F8000FFF718FD032209211F48FFF713FD09A9E8
:100F90001D48FFF7C7FC01210220FFF773FEA8B22E
:100FA000ADF818000020ADF81A000794ADF8200045
:100FB00006A9164800F0A8F96020ADF80400012049
:100FC000ADF806000020ADF8100001A90F4800F0B0
:100FD000F7F801A90D4800F04DF908210B4800F081
:100FE0003FF90821094800F081F90121074800F084
:100FF0005FF80121054800F073F80121034800F073
:1010000063F80BB030BD000000080240000401404E
:1010100030B58BB004460D4601210846FFF702FEAD
:101020000820099002208DF8280003208DF829005F
:1010300000208DF82A0001208DF82B000322114694
:101040001948FFF7B7FC09A91748FFF76BFC012106
:101050000804FFF717FEA8B2ADF818000020ADF89D
:101060001A000794ADF8200006A9104800F04CF9CA
:101070006020ADF804000120ADF806000020ADF8B6
:10108000100001A9094800F03BF80821074800F0CA
:1010900089F80121054800F00BF80121034800F010
:1010A00013F80BB030BD00000000024000400140CA
:1010B00021B1028842F08002028004E002884FF6EB
:1010C0007F731A400280704721B1028842F001020A
:1010D000028004E002884FF6FE731A4002807047D7
:1010E00031B1B0F8442042F40042A0F8442005E0B9
:1010F000B0F84420C2F30E02A0F84420704700006C
:1011000070B5002400220023058C4FF6EF763540A1
:101110000584028C8388048B48F6FF752C404FF6BB
:10112000FF452C400D884FF6FF7606EA05252C4337
:101130004FF6DF752A408D8906EA05152A434D884A
:1011400006EA05152A43154DA84202D0144DA842BF
:101150001DD14FF67F752A40CD894FF6FF7606EAFE
:1011600005152A434FF6BF752A408D8806EA0515F6
:101170002A434FF6FF352B404FF2FF752B400D8A67
:1011800006EA85052B434D8A06EA85052B438380B5
:1011900004838D688563028470BD000000000140F7
:1011A000000401400A460021018B4FF2FF731940F1
:1011B0004FF6FF7303EA02231943018370470000CF
:1011C00070B5002400220023058C4FF6FF663540E1
:1011D0000584028C8388848B4FF68F752C404FF6E4
:1011E000FC752C400D882C434FF6FF552A408D8905
:1011F0004FF6FF7606EA05252A434D8806EA0525BF
:101200002A43154DA84202D0144DA8421DD14FF2D9
:10121000FF752A40CD894FF6FF7606EA05252A4359
:101220004FF6FF352A408D8806EA05252A434EF6FB
:10123000FF752B404DF6FF752B400D8A06EA05150C
:101240002B434D8A06EA05152B43838084838D68E2
:10125000C563028470BD000000000140000401402D
:101260000A460021818B4FF6F773194011438183A1
:101270007047000070B5002200230024058C4EF654
:10128000FF7635400584038C8488828B48F6FF7591
:101290002A404FF6FF452A400D884FF6FF7606EAB2
:1012A00005252A434DF6FF752B408D8906EA053545
:1012B0002B434D8806EA05352B430A4DA84202D040
:1012C000094DA84208D14BF6FF752C400D8A4FF608
:1012D000FF7606EA85152C43848082838D68056439
:1012E000038470BD00000140000401400A46002153
:1012F000818B4FF2FF7319404FF6FF7303EA02230D
:10130000194381837047000000220288184B9842DD
:101310000ED0184B98420BD0B0F1804F08D0164B2E
:10132000984205D0154B984202D0154B984204D1F3
:101330004FF68F731A404B881A43124B984207D0CE
:10134000114B984204D04FF6FF431A400B891A43C1
:1013500002804B68C3620B880385054B984202D01C
:10136000044B984201D18B7A038601238382704714
:10137000000001400004014000040040000800405B
:10138000000C0040001000400014004070470000B6
:1013900000B597B001214804FFF754FC01215648DD
:1013A000FFF740FC072205215448FFF703FB072203
:1013B00006215248FFF7FEFA00208DF85A008DF8FA
:1013C0005B0002208DF858008DF8590060201590C0
:1013D00015A94A48FFF7A6FA494800F0DBF84FF490
:1013E000E12011900020ADF84800ADF84A00ADF8BA
:1013F0004C00ADF850000C20ADF84E0011A940484B
:1014000000F090F9012240F224413D4800F064F9D7
:1014100001213B4800F0A8F801228021384800F063
:10142000AFF801224021364800F0AAF826208DF8B6
:10143000400000208DF8410002208DF8420001207C
:101440008DF8430010A8FFF7D9FA2E48FFF772F97C
:1014500000BF2C48FFF71AFA0128FAD04FF00060BD
:1014600001902748001D02902748039040200490D7
:1014700001200590002006904FF480600790002026
:10148000089009900A904FF440300B9000200C9087
:101490000D900E900F9001A91A48FFF705FA002150
:1014A0001848FFF73CF917481838FFF743F900BF11
:1014B00014481838FFF7EAF90128F9D04FF0006016
:1014C00001900F48001D02901048039000200490E6
:1014D000C82005904FF480700A904FF440300B9074
:1014E00001A908481838FFF7DFF901210548183825
:1014F000FFF715F917B000BD08002000000C0240EE
:1015000000440040A06002403C000020E8020020AF
:1015100010B540F22441114800F0B4F801281BD165
:101520000E4800880D48001D00880D48FFF7B8F9E7
:10153000C82805D101200B490870FFF7E1F90BE03D
:1015400000210748FFF7EBF8C8200549091D08608E
:1015500001210348FFF7E3F810BD000000440040FC
:10156000886002403B00002021B1828942F4005291
:10157000828104E082894DF6FF731A4082817047B0
:101580001AB1838A0B43838202E0838A8B4383826E
:101590007047000010B504463248844208D101214A
:1015A0001020FFF77FFB00211020FFF77BFB57E0A7
:1015B0002D48844209D101214804FFF753FB002143
:1015C0004FF40030FFF74EFB4AE02848844209D12F
:1015D00001218804FFF746FB00214FF48020FFF72C
:1015E00041FB3DE02248844209D10121C804FFF7B4
:1015F00039FB00214FF40020FFF734FB30E01D4899
:10160000844209D101210805FFF72CFB00214FF48A
:101610008010FFF727FB23E01748844208D10121FF
:101620002020FFF73FFB00212020FFF73BFB17E0C6
:101630001248844209D101218807FFF713FB0021DA
:101640004FF08040FFF70EFB0AE00D48844207D1BF
:1016500001214005FFF706FB00216005FFF702FBB3
:1016600010BD000000100140004400400048004050
:10167000004C004000500040001401400078004041
:10168000007C004070B502460024002300250020A5
:1016900040F66A16B14200D100BFC1F3421501F015
:1016A0001F03012606FA03F3012D02D19689334068
:1016B00006E0022D02D1168A334001E0968A3340BB
:1016C0000C12012606FA04F41688344013B10CB14A
:1016D000012000E0002070BDF0B503460024002684
:1016E0000025002040F66A17B94200D100BF184615
:1016F000C1F3421401F01F06012707FA06F5012C79
:1017000001D10C3004E0022C01D1103000E0143083
:101710001AB107682F43076002E00768AF4307600C
:10172000F0BD00002DE9FF4705460E460024A14606
:1017300000BFA046B08900B100BF2C8A24F44054F9
:10174000F08804432C82AC8941F20C608443B08859
:1017500031890843718908430443AC81AC8A24F47D
:101760004074B0890443AC826846FFF7ABFA204866
:10177000854202D01F48854202D1DDF80C9001E07D
:10178000DDF80890A88900F4004040B109EBC900D9
:1017900000EB091031684900B0FBF1F707E009EBF5
:1017A000C90000EB091031688900B0FBF1F7642033
:1017B000B7FBF0F004012009642101FB1078A8892F
:1017C00000F4004040B1322000EBC800B0FBF1F063
:1017D00000F00700044308E0322000EB0810642109
:1017E000B0FBF1F000F00F0004432C81BDE8FF874F
:1017F000001001400014014010B5FEF772FDFFF724
:1018000039F9002010BD10B5024612F821301C062F
:101810008B005B1CD35C44EA03448B009B1CD35CB1
:1018200044EA03238C00E41C145D43EA040010BD69
:101830004FF04070E1EE100A704700005379737466
:10184000656D4D6F6E69746F725461736B0000004B
:10185000701800080000002070000000C40100089B
:10186000E018000870000020D8090000E00100081E
:101870000000000000000000000000003C1800080C
:10188000010F00080000000040420F0000000000AF
:10189000000000000000000000000000FFFFFFFF4C
:1018A00001000000010000000000000046000000F0
:1018B0000000000000000000000000000000000028
:1018C0000000000000000000000000000000000018
:1018D00000000102030401020304060708090000D6
:040000050800018965
:00000001FF
